:100000000C94B5000C944E050C94D2000C94D200C4
:100010000C94D2000C94D2000C94D2000C94D20018
:100020000C94D2000C94D2000C94D2000C94F305E2
:100030000C94D2000C94D2000C94D2000C94D200F8
:100040000C94D2000C94D2000C94D2000C94D200E8
:100050000C94D2000C94D2000C94D2000C94D200D8
:100060000C94D2000C94D2006E616E00696E660032
:1000700000407A10F35A00A0724E18090010A5D45F
:10008000E80000E87648170000E40B54020000CABC
:100090009A3B000000E1F505000080969800000002
:1000A00040420F000000A086010000001027000061
:1000B0000000E803000000006400000000000A00E7
:1000C000000000000100000000002C76D888DC67EA
:1000D0004F0823DFC1DFAE59E1B1B796E5E3E45342
:1000E000C63AE651997696E8E6C28426EB898C9B5F
:1000F00062ED407C6FFCEFBC9C9F40F2BAA56FA5FF
:10010000F490055A2AF75C936B6CF9676DC11BFC80
:10011000E0E40D47FEF520E6B500D0ED902E03009B
:10012000943577050080841E080000204E0A0000E8
:1001300000C80C333333330F986E12831141EF8DA7
:100140002114893BE65516CFFEE6DB18D1844B38E7
:100150001BF77C1D901DA4BBE424203284725E2218
:100160008100C9F124ECA1E53D2711241FBECFEF8A
:10017000D8E0DEBFCDBF11E0A0E0B1E0EAE4FBE1F2
:1001800002C005900D92A234B107D9F722E0A2E493
:10019000B1E001C01D92A335B207E1F70E94560AF3
:1001A0000C94A30D0C940000803190F5282F30E0C2
:1001B000F901EC5EFE4F5081F901EC5DFE4F90813C
:1001C0009062823049F1833008F444C0843009F4ED
:1001D00048C008F448C04598663008F5E62FF0E0BE
:1001E000E25FFE4F80814031E9F0413120F544303B
:1001F00009F458C0483009F441C0423099F421E86C
:10020000892B80937C0020937A0050937E00089580
:1002100095E250E28230B9F642986630F8F280E416
:10022000403119F724E8892B80937C0020937A00D1
:1002300050937E000895403461F14038B1F040326F
:1002400089F725E8892B80937C0020937A005093CE
:100250007E0008958823D9F0813009F0BCCF419801
:10026000BBCF4498B9CF4398B7CF27E8892B809369
:100270007C0020937A0050937E00089523E8892B18
:1002800080937C0020937A0050937E0008954098DC
:10029000A3CF26E8892B80937C0020937A0050938B
:1002A0007E00089522E8892B80937C0020937A00B9
:1002B00050937E00089580917A0086FDFCCF809156
:1002C00079000895EAE7F0E08081806480830895F2
:1002D000FC01862FDF019E9121E030E001C0220F5A
:1002E0006A95EAF7442331F0413069F0292B2C93C9
:1002F000BF010895322F309593239C939081292B31
:100300002083BF010895322F309593239C939081D1
:1003100029232083BF010895FB0141110EC04081B4
:1003200021E030E0B90102C0660F771F8A95E2F73D
:10033000CB018095842380830895408121E030E0C3
:10034000B90102C0660F771F8A95E2F7CB01842BB3
:1003500080830895FB013297908121E030E002C054
:10036000220F331F8A95E2F7892F90E02823392343
:1003700081E0232B09F480E00895FB01908121E0C6
:1003800030E001C0220F8A95EAF7292720830895DB
:100390000895E9E6F0E0808183608083E89A08951B
:1003A000CF930E94D505219A299A2FEF80E792E0FA
:1003B000215080409040E1F700C0000029988FE96B
:1003C0009FE00197F1F700C00000299A8FE39CE9B4
:1003D0000197F1F700C000002A9A809169008360BC
:1003E00080936900E89A2A9882E40E94E20580E0FE
:1003F0000E94ED052A9A823119F080E0CF9108958C
:100400002A9881E80E94E20580E80E94ED052A9A78
:100410002A9881E80E94E20580E80E94ED052A9A68
:100420002A9886E80E94E20588ED0E94ED052A9A46
:100430002A9887E80E94E20580E80E94ED052A9A42
:100440002A9888E80E94E20580E00E94ED052A9A39
:100450002A988EE80E94E20580E00E94ED052A9A23
:100460002A988FE80E94E20580E00E94ED052A9A12
:100470002A988CE00E94E20580E00E94ED05C82FDA
:100480002A9A2A988CE80E94E2058C2F83600E94A9
:10049000ED052A9A2A9886EA0E94E20584E00E94E5
:1004A000ED052A9A2A9880EC0E94E20580E00E94DD
:1004B000ED052A9A2A988DE10E94E20580E00E94CB
:1004C000ED05C82F2A9A2A988DE90E94E2058C2F03
:1004D0008F7080670E94ED052A9A2A988EE10E940B
:1004E000E20580E00E94ED05C82F2A9A2A988EE93D
:1004F0000E94E2058C2F8F7080670E94ED052A9A7A
:100500002A988DE10E94E20580E00E94ED05C82F47
:100510002A9A2A988DE90E94E2058C2F817F8260B9
:100520000E94ED052A9A2A988BE80E94E20582E350
:100530000E94ED052A9A2A988DEC0E94E20587E830
:100540000E94ED052A9A2A9889E80E94E2058FE820
:100550000E94ED052A9A2A988DE10E94E20580E02A
:100560000E94ED05C82F2A9A2A988DE90E94E2057B
:100570008C2F8E7F0E94ED052A9A2A9881E80E948E
:10058000E20581E80E94ED052A9A9FEF20E782E0CC
:10059000915020408040E1F700C000002A9881E897
:1005A0000E94E20585E80E94ED052A9A81E0CF913C
:1005B0000895CF93C62F2A980E94E2058C2F0E949F
:1005C000ED052A9ACF9108952A988F770E94E20527
:1005D00080E00E94ED052A9A0895CF93C62F2A98AD
:1005E00080680E94E2058C2F0E94ED052A9ACF9127
:1005F00008952A9881E80E94E20580E80E94ED05AE
:100600002A9A08952A9881E80E94E20581E80E94CA
:10061000ED052A9A0895AF92BF92CF92DF92EF92A2
:10062000FF920F931F93CF93DF93DC01CB019C01CB
:10063000AD0160E070E080E090E003E10E943A0BE1
:10064000A12CE8E4BE2EF8EECF2EDD24D394E12CCD
:10065000F12C00E010E00E94A60AC22FB32E6A011E
:100660007B01182FD92F2A9886E80E94E2052C2FAB
:100670003B2DA601B701812F9D2F00E10E94550B54
:10068000822F0E94ED052A9A2A9887E80E94E205A7
:100690002C2F3B2DA601B701812F9D2F08E00E9432
:1006A000550B822F0E94ED052A9A2A9888E80E940D
:1006B000E2058C2F0E94ED052A9ADF91CF911F91C0
:1006C0000F91FF90EF90DF90CF90BF90AF90089583
:1006D000CF93813FB0F48937B8F490E08D9765E00F
:1006E00070E00E94900AC62F2A988BE80E94E205CB
:1006F0008C2F8F7180620E94ED052A9A81E0CF9144
:10070000089580E0CF91089590E04E966AE070E001
:100710000E94900AC62FE8CFCF932A988DE10E94BD
:10072000E20580E00E94ED05C82F2A9A2A988DE9FB
:100730000E94E2058C2F8E7F0E94ED052A9ACF91B0
:100740000895CF92DF92EF92FF92CF936B017C01DD
:100750002A988AE10E94E20580E00E94ED05C82FF8
:100760002A9AC701B6010E948A0B2AEE36E54AEFA3
:100770005DE40E94850B87FD0AC083E69FEF8C0F26
:10078000911DCF91FF90EF90DF90CF9008958CE571
:100790009FEF8C0F911DCF91FF90EF90DF90CF9046
:1007A0000895CF93C82F2A988BE80E94E20582E330
:1007B0000E94ED052A9AC231B0F02A988DEC0E9471
:1007C000E20587E80E94ED052A9A2A9889E80E94A6
:1007D000E205C531F0F48BEF8C0F80680E94ED05C7
:1007E0002A9ACF910895C230B0F0C250C0682A98BA
:1007F0008DEC0E94E20584E80E94ED052A9A2A9871
:1008000089E80E94E2058C2F0E94ED052A9ACF917B
:100810000895C4E1E0CFC0E8EACFCF93DF93C82FBB
:100820002A988DE10E94E20580E00E94ED05D82F14
:100830002A9A2A988DE90E94E2058D2F8F7090E107
:10084000C99F90011124822B0E94ED052A9ADF9105
:10085000CF910895CF93DF93C82F2A988EE10E94FD
:10086000E20580E00E94ED05D82F2A9A2A988EE9A9
:100870000E94E2058D2F8F7090E1C99F9001112495
:10088000822B0E94ED052A9ADF91CF910895CF9394
:10089000DF93D82F2A988DE10E94E20580E00E9424
:1008A000ED05C82F2A9A2A988DE90E94E205C17F9A
:1008B0008D2F880F8C2B0E94ED052A9ADF91CF9106
:1008C0000895909343018093420108952A9881E806
:1008D0000E94E20585E80E94ED052A9A0895EF92AC
:1008E000FF920F931F93CF93DF93611107C0DF91A6
:1008F000CF911F910F91FF90EF900895062F192F20
:10090000F82E2A9881E80E94E20581E80E94ED0510
:100910002A9A2A988DE80E94E20580E00E94ED055F
:100920002A9ACF2DD12FEE24EA94E00EF12C8FEFEE
:10093000E81AF80AEC0EFD1E19912A9880E80E9428
:10094000E205812F0E94ED052A9ACE15DF05A1F759
:100950002A9882EA0E94E205802F0E94ED052A9AD9
:100960002A9881E80E94E20583E80E94ED052A9A10
:100970002A9882E10E94E20580E00E94ED052A9A11
:10098000C82FC87083FFF4CF2A9882E90E94E2053D
:100990008C2F0E94ED052A9A2A9881E80E94E20590
:1009A00085E80E94ED052A9ADF91CF911F910F9162
:1009B000FF90EF900895FF920F931F93CF93DF93D3
:1009C00080914A01811106C0DF91CF911F910F9153
:1009D000FF9008952A9882E10E94E20580E00E943B
:1009E000ED05C82F2A9A2A9882E90E94E2058C2FE9
:1009F0000E94ED052A9AC5FF0CC0E0914201F091DA
:100A00004301309741F040E260E080E090E00995DA
:100A100002C0C6FD08C010924A01DF91CF911F911C
:100A20000F91FF9008952A9883E10E94E20580E0EB
:100A30000E94ED05F82E2A9A2A9880E10E94E2058C
:100A400080E00E94ED05C82F2A9A2A988DE80E941E
:100A5000E2058C2F0E94ED052A9AFF2099F0CBE445
:100A6000D1E00FEF0F0D10E0045B1E4F2A9880E0DD
:100A70000E94E20580E00E94ED052A9A8993C01742
:100A8000D107A1F7E0914201F0914301309719F2AB
:100A900040E46F2D8BE491E00995BDCF1F920F923A
:100AA0000FB60F9211248F9381E080934A018F91AA
:100AB0000F900FBE0F901F90189542E066E08BE2FA
:100AC00090E00E94680160934A0270934B02809309
:100AD0004C0282E484BD81E085BD83E087BD08953A
:100AE00081110FC085B58E7F85BD84B58F7B84BD98
:100AF00060914A0270914B0280914C0240E00C944C
:100B00008C0185B5816085BD84B5806484BD6091AC
:100B10004A0270914B0280914C0241E00C948C018E
:100B20008A3049F09091C00095FFFCCF8093C600B9
:100B300080E090E008959091C00095FFFCCF9DE08B
:100B40009093C600EFCF80E091E0909350028093A5
:100B50004F02089580E190E09093C5008093C40017
:100B6000E0ECF0E0808182608083E1ECF0E0808165
:100B7000886180830895E1ECF0E08081877E808346
:100B800008958091C00087FFFCCF8091C600089532
:100B90008091C000881F8827881F08959091C00009
:100BA00095FFFCCF8093C6000895259A239A249838
:100BB000219A229A2D9A2B9A2A9A299A8CB5826583
:100BC0008CBD08958EBD0DB407FEFDCF08951EBCEB
:100BD0000DB407FEFDCF8EB508958EBD0DB407FE92
:100BE000FDCF8EB508951F920F920FB60F9211246C
:100BF0002F933F934F935F936F937F938F939F9325
:100C0000AF93BF93EF93FF9380914601909147017B
:100C100001979093470180934601809146019091FE
:100C20004701892B69F4E0914401F0914501099550
:100C3000809148019091490190934701809346012A
:100C4000FF91EF91BF91AF919F918F917F916F91A4
:100C50005F914F913F912F910F900FBE0F901F907A
:100C60001895909349018093480190934701809390
:100C700046017093450160934401109280008DE01D
:100C80008093810088E09DE39093890080938800A1
:100C900082E080936F00089592E09093B00090936B
:100CA00070008093B30060327105A1F178F0603874
:100CB000710561F1E0F0611581E07807A1F061153F
:100CC000744001F587E08093B100089561307105AB
:100CD000A9F030F068307105A9F49093B10008953F
:100CE0001092B100089586E08093B10008956034B9
:100CF000710541F484E08093B100089581E0809310
:100D0000B100089582E08093B100089585E080935A
:100D1000B100089583E08093B10008958032910579
:100D200071F178F08038910531F1D0F0811521E032
:100D3000920779F08115944041F487E08093B100E7
:100D400008958130910599F040F082E08093B100E0
:100D5000089586E08093B10008951092B10008953F
:100D60008034910591F784E08093B100089581E08B
:100D70008093B100089585E08093B100089583E0E9
:100D80008093B1000895403221F0FC012081273486
:100D900009F0089521812333E1F722812A33C9F72D
:100DA00003960C94150D0E94A3050E94AA05789441
:100DB0000895A0E1B0E0EFEDF6E00C94030B7C01A8
:100DC0001B016A01FC0117821682838181FF44C3E3
:100DD0009E012F5F3F4F3901F7019381F10193FD90
:100DE000859193FF81911F01882309F431C38532D6
:100DF00039F493FD859193FF81911F01853239F478
:100E0000B70190E00E94D90C56016501E5CF10E0D2
:100E1000512C912CFFE1F915D8F08B3279F038F490
:100E2000803279F08332A1F4F92DF0612EC08D3239
:100E300061F0803369F4292D21602DC0392D326095
:100E4000932E892D8460982E2AC0E92DE86015C064
:100E500097FC2DC020ED280F2A3088F496FE06C09E
:100E60003AE0139F200D1124122F19C08AE0589EDA
:100E7000200D1124522EE92DE0629E2E10C08E32DC
:100E800031F496FCE5C2F92DF0649F2E08C08C3633
:100E900021F4292D2068922E02C0883641F4F101F8
:100EA00093FD859193FF81911F018111B3CF9BEB3E
:100EB000980F933020F4992D9061805E07C09BE9D4
:100EC000980F933008F066C1992D9F7E96FF16E02B
:100ED0009F73992E853619F49064992E08C0863632
:100EE00021F4392F3068932E02C01111115097FE52
:100EF00007C01C3350F444244394410E27E00BC038
:100F0000183038F027E017E005C027E09CE3492EB1
:100F100002C0212F412C560184E0A80EB11CF6011D
:100F20006081718182819381042DA3010E94EB0B6A
:100F30006C01F981FC87F0FF02C0F3FF06C091FC51
:100F400006C092FE06C000E205C00DE203C00BE23F
:100F500001C000E08C858C7019F001115AC29BC24F
:100F600097FE10C04C0CFC85F4FF04C08A818133CD
:100F700009F44A94141474F528E0241578F588E0EF
:100F8000482E2CC096FC2AC0812F90E08C159D0520
:100F90009CF03CEFC3163FEFD30674F0892D8068B8
:100FA000982E0AC0E2E0F0E0EC0FFD1FE10FF11D0A
:100FB0008081803319F411501111F4CF97FE0EC0C7
:100FC00044244394410E812F90E0C816D9062CF496
:100FD0001C1904C04424439401C010E097FE06C0CD
:100FE0001C141D0434F4C601019605C085E090E090
:100FF00002C081E090E001110196112331F0212F10
:1010000030E02F5F3F4F820F931F252D30E0821776
:10101000930714F4581A01C0512C892D897049F492
:10102000552039F0B70180E290E00E94D90C5A9423
:10103000F7CF002329F0B701802F90E00E94D90C50
:1010400093FC09C0552039F0B70180E390E00E947D
:10105000D90C5A94F7CF97FE4CC04601D7FE02C078
:10106000812C912CC60188199909F301E80FF91F09
:10107000FE87ED87960124193109388B2F87012FC0
:1010800010E01195019511093FEF8316930629F49D
:10109000B7018EE290E00E94D90CC814D9044CF03C
:1010A0008F8598898815990524F4ED85FE858181C1
:1010B00001C080E3F1E08F1A91082D853E852F5FF6
:1010C0003F4F3E872D87801691062CF0B70190E0A8
:1010D0000E94D90CD9CFC814D90441F49A8196330F
:1010E00020F4953319F43C8534FF81E3B70190E097
:1010F0004EC08A81813319F09C859F7E9C87B70101
:1011000090E00E94D90C111105C094FC18C085E62E
:1011100090E017C0B7018EE290E00E94D90C1E5FEC
:1011200082E001E0080FF301E80FF11D8081B701B3
:1011300090E00E94D90C802F0113F3CFE6CF85E415
:1011400090E0B7010E94D90CD7FC06C0C114D104AD
:1011500041F4EC85E4FF05C0D194C194D1088DE23F
:1011600001C08BE2B70190E00E94D90C80E32AE035
:10117000C216D1042CF08F5FFAE0CF1AD108F7CF56
:10118000B70190E00E94D90CB701C601C0960E9439
:10119000D90C54C1833631F0833779F0833509F0A7
:1011A00056C020C0560132E0A30EB11CF60180816A
:1011B000898301E010E0630112C05601F2E0AF0E36
:1011C000B11CF601C080D18096FE03C0612F70E093
:1011D00002C06FEF7FEFC6010E94CE0C8C01F92D8B
:1011E000FF7714C0560122E0A20EB11CF601C080A8
:1011F000D18096FE03C0612F70E002C06FEF7FEFD9
:10120000C6010E94C30C8C01F92DF0689F2EF3FDDE
:101210001AC0852D90E008171907A8F4B70180E2DD
:1012200090E00E94D90C5A94F4CFF60197FC859176
:1012300097FE81916F01B70190E00E94D90C511087
:101240005A94015011090115110579F7F7C0843638
:1012500011F0893661F5560197FE09C024E0A20E0F
:10126000B11CF60160817181828193810AC0F2E034
:10127000AF0EB11CF60160817181072E000C880B46
:10128000990BF92DFF769F2E97FF09C090958095B9
:10129000709561957F4F8F4F9F4FF0689F2E2AE08A
:1012A00030E0A3010E94450DC82EC6183FC0092D8D
:1012B000853721F40F7E2AE030E01DC0097F8F368C
:1012C00091F018F4883559F0C3C0803719F0883789
:1012D00011F0BEC0006104FF09C0046007C094FEA5
:1012E00008C0066006C028E030E005C020E130E01C
:1012F00002C020E132E0560107FF09C084E0A80ED9
:10130000B11CF601608171818281938108C0F2E095
:10131000AF0EB11CF6016081718180E090E0A30105
:101320000E94450DC82EC6180F77902E96FE0BC052
:10133000092D0E7FC11650F494FE0AC092FC08C01D
:10134000092D0E7E05C0DC2C092D03C0DC2C01C04C
:10135000D12E04FF0DC0FE01EC0DF11D8081803304
:1013600011F4097E09C002FF06C0D394D39404C0CF
:10137000802F867809F0D39403FD11C000FF06C0CA
:101380001C2DD51480F4150D1D190DC0D51458F45D
:10139000B70180E290E00E94D90CD394F7CFD51426
:1013A00010F45D1801C0512C04FF10C0B70180E398
:1013B00090E00E94D90C02FF17C001FD03C088E72E
:1013C00090E002C088E590E0B7010CC0802F8678DD
:1013D00059F001FF02C08BE201C080E207FD8DE2FF
:1013E000B70190E00E94D90CC11638F4B70180E330
:1013F00090E00E94D90C1150F7CFCA94F301EC0D84
:10140000F11D8081B70190E00E94D90CC110F5CF89
:1014100015C0F4E0F51560F584E0581A93FE1FC07E
:10142000011127C02C8523FF2AC008E610E0392DC2
:101430003071932EF8018491811124C0552009F454
:10144000E4CCB70180E290E00E94D90C5A94F6CF28
:10145000F7018681978126C08FEF9FEF23C0B701E8
:1014600080E290E00E94D90C5A945110F8CFD8CF66
:10147000512CB701802F90E00E94D90CD3CF0CE6FD
:1014800010E0D5CF91108052B70190E00E94D90CA6
:101490000F5F1F4FCFCF23E0251510F483E0BDCFA2
:1014A000512CC0CF6096E2E10C941F0BCF93DF93D9
:1014B000CDB7DEB727970FB6F894DEBF0FBECDBF0E
:1014C0000E94A3050E94AA0578940E94D001882357
:1014D000E1F383EC96E00E9461040E94DB040E9429
:1014E000C8058823D1F30E94C1058F33B1F70E944C
:1014F000C105883489F0823481F787E0E4E3F1E0C4
:10150000DE01119601900D928A95E1F766E0CE0119
:1015100001960E946F04E1CF87E0EBE3F1E0F0CFAA
:1015200097FB072E16F4009407D077FD09D00E9490
:10153000710B07FC05D03EF4909581959F4F08955F
:10154000709561957F4F0895689401C0E8948F92DB
:101550009F92CF93DF930E94B20ADF91CF919F9029
:101560008F90089588249924F401E401B0E49F93B6
:10157000AA279A158B049C04ED05FE05CF05D0071C
:10158000A10798F4AD2FDC2FCF2FFE2FE92D982C3B
:10159000892E982F872F762F652F542F432F322F88
:1015A0002227B85031F7BF9127C01B2EBF91BB2710
:1015B000220F331F441F551F661F771F881F991F57
:1015C000881C991CEE1FFF1FCC1FDD1FAA1FBB1F0D
:1015D0008A149B04EC05FD05CE05DF05A007B107C5
:1015E00048F08A189B08EC09FD09CE09DF09A00B19
:1015F000B10B21601A94E1F62EF49401AF01BE0103
:10160000CD01000C08952F923F924F925F926F92FE
:101610007F928F929F92AF92BF92CF92DF92EF9282
:10162000FF920F931F93CF93DF93CDB7DEB7CA1B03
:10163000DB0B0FB6F894DEBF0FBECDBF09942A882E
:10164000398848885F846E847D848C849B84AA84D6
:10165000B984C884DF80EE80FD800C811B81AA8163
:10166000B981CE0FD11D0FB6F894DEBF0FBECDBF2E
:10167000ED0108950F93083090F0982F872F762F63
:10168000652F542F432F322F22270850F4CF220FDB
:10169000331F441F551F661F771F881F991F0A9508
:1016A000B2F70F91089597FB10F8169400080F9366
:1016B000083098F00850232F342F452F562F672FCE
:1016C000782F892F902DF4CF05949795879577954E
:1016D000679557954795379527950A95AAF70F91DE
:1016E0000895AA1BBB1B51E107C0AA1FBB1FA61769
:1016F000B70710F0A61BB70B881F991F5A95A9F7BB
:1017000080959095BC01CD0108950E94C70B08F407
:1017100081E00895E89409C097FB3EF49095809588
:10172000709561957F4F8F4F9F4F9923A9F0F92FA7
:1017300096E9BB279395F695879577956795B79525
:10174000F111F8CFFAF4BB0F11F460FF1BC06F5F0B
:101750007F4F8F4F9F4F16C0882311F096E911C01D
:10176000772321F09EE8872F762F05C0662371F03E
:1017700096E8862F70E060E02AF09A95660F771F52
:10178000881FDAF7880F9695879597F90895990F2E
:101790000008550FAA0BE0E8FEEF16161706E8073B
:1017A000F907C0F012161306E407F50798F0621B5C
:1017B000730B840B950B39F40A2661F0232B242B31
:1017C000252B21F408950A2609F4A140A6958FEF50
:1017D000811D811D0895283008F027E03327DA01A4
:1017E000990F311D87FD916000966105710539F4EF
:1017F00032602E5F3D9330E32A95E1F708959F3FD5
:1018000030F080387105610509F03C5F3C5F3D9325
:10181000913008F08068911DDF93CF931F930F9351
:10182000FF92EF92192F987F9695E92F96959695AE
:10183000E90FFF27E653FF4F99273327EE24FF24B4
:10184000A701E70105900894079428F4360FE71ED6
:10185000F81E491F511D660F771F881F991F069498
:10186000A1F70590079428F4E70EF81E491F561FAC
:10187000C11D770F881F991F661F0694A1F7059059
:10188000079428F4F80E491F561FC71FD11D880F53
:10189000991F661F771F0694A1F70590079420F4FF
:1018A000490F561FC71FD81F990F661F771F881F24
:1018B0000694A9F784911095177041F0D695C795B5
:1018C00057954795F794E7941A95C1F7E0E7F0E04C
:1018D00068941590159135916591959105907FE2E9
:1018E0007395E118F10A430B560BC90BD009C0F7E9
:1018F000E10CF11E431F561FC91FD01D7EF470332B
:1019000011F48A95E6CFE894015030F0080F0AF4FC
:101910000027021708F4202F2395022F7A3328F08E
:1019200079E37D932A95E9F710C07D932A9589F68E
:10193000069497956795379517951794E118F10ACE
:10194000430B560BC90BD00998F023957E917395E4
:101950007A3308F070E37C932013B8F77E917061BE
:101960007D9330F0839571E37D9370E32A95E1F7E1
:101970001124EF90FF900F911F91CF91DF91992744
:1019800087FD90950895FC0105906150704001100D
:10199000D8F7809590958E0F9F1F0895FC01615098
:1019A000704001900110D8F7809590958E0F9F1F81
:1019B00008950F931F93CF93DF93FB01238121FDA4
:1019C00003C08FEF9FEF2CC022FF16C046815781C6
:1019D000248135814217530744F4A081B1819D01D0
:1019E0002F5F3F4F318320838C93268137812F5F78
:1019F0003F4F3783268314C08B01EC01FB01008429
:101A0000F185E02D0995892BE1F6D80116968D9187
:101A10009C911797019617969C938E931697CE01DB
:101A2000DF91CF911F910F9108950F931F93CF9343
:101A3000DF93E0914F02F0915002238121FF1BC000
:101A40008C01D0E0C0E0F80181918F0160914F02DC
:101A500070915002DB011896ED91FC911997882343
:101A600031F00995892B79F3DFEFCFEFECCF8AE0E6
:101A70000995892B19F08FEF9FEF02C08D2F9C2FB6
:101A8000DF91CF911F910F910895FA01AA27283075
:101A900051F1203181F1E8946F936E7F6E5F7F4F3B
:101AA0008F4F9F4FAF4FB1E03ED0B4E03CD0670FB7
:101AB000781F891F9A1FA11D680F791F8A1F911D0A
:101AC000A11D6A0F711D811D911DA11D20D009F45A
:101AD00068943F912AE0269F11243019305D31939C
:101AE000DEF6CF010895462F4770405D4193B3E085
:101AF0000FD0C9F7F6CF462F4F70405D4A3318F02C
:101B0000495D31FD4052419302D0A9F7EACFB4E0DC
:101B1000A6959795879577956795BA95C9F7009794
:101B20006105710508959B01AC010A2E0694579535
:101B3000479537952795BA95C9F7620F731F841F8C
:0A1B4000951FA01D0895F894FFCF33
:101B4A00000000020000000090050000000000C034
:101B5A00404040400102040810202020002020209C
:101B6A0020200000000102030405050508050505FB
:101B7A0005050E0F47333A3F42000047333A3F48C4
:021B8A00000059
:00000001FF
